{
  "_format": "hh-sol-artifact-1",
  "contractName": "IgboLandingNFT",
  "sourceName": "contracts/IgboLandingNFT.sol",
  "abi": [
    {
      "inputs": [],
      "stateMutability": "nonpayable",
      "type": "constructor"
    },
    {
      "anonymous": false,
      "inputs": [
        {
          "indexed": true,
          "internalType": "address",
          "name": "owner",
          "type": "address"
        },
        {
          "indexed": true,
          "internalType": "address",
          "name": "approved",
          "type": "address"
        },
        {
          "indexed": true,
          "internalType": "uint256",
          "name": "tokenId",
          "type": "uint256"
        }
      ],
      "name": "Approval",
      "type": "event"
    },
    {
      "anonymous": false,
      "inputs": [
        {
          "indexed": true,
          "internalType": "address",
          "name": "owner",
          "type": "address"
        },
        {
          "indexed": true,
          "internalType": "address",
          "name": "operator",
          "type": "address"
        },
        {
          "indexed": false,
          "internalType": "bool",
          "name": "approved",
          "type": "bool"
        }
      ],
      "name": "ApprovalForAll",
      "type": "event"
    },
    {
      "anonymous": false,
      "inputs": [
        {
          "indexed": false,
          "internalType": "address",
          "name": "sender",
          "type": "address"
        },
        {
          "indexed": false,
          "internalType": "uint256",
          "name": "tokenId",
          "type": "uint256"
        }
      ],
      "name": "NewEpicNFTMinted",
      "type": "event"
    },
    {
      "anonymous": false,
      "inputs": [
        {
          "indexed": true,
          "internalType": "address",
          "name": "from",
          "type": "address"
        },
        {
          "indexed": true,
          "internalType": "address",
          "name": "to",
          "type": "address"
        },
        {
          "indexed": true,
          "internalType": "uint256",
          "name": "tokenId",
          "type": "uint256"
        }
      ],
      "name": "Transfer",
      "type": "event"
    },
    {
      "inputs": [
        {
          "internalType": "address",
          "name": "to",
          "type": "address"
        },
        {
          "internalType": "uint256",
          "name": "tokenId",
          "type": "uint256"
        }
      ],
      "name": "approve",
      "outputs": [],
      "stateMutability": "nonpayable",
      "type": "function"
    },
    {
      "inputs": [
        {
          "internalType": "address",
          "name": "owner",
          "type": "address"
        }
      ],
      "name": "balanceOf",
      "outputs": [
        {
          "internalType": "uint256",
          "name": "",
          "type": "uint256"
        }
      ],
      "stateMutability": "view",
      "type": "function"
    },
    {
      "inputs": [
        {
          "internalType": "uint256",
          "name": "tokenId",
          "type": "uint256"
        }
      ],
      "name": "getApproved",
      "outputs": [
        {
          "internalType": "address",
          "name": "",
          "type": "address"
        }
      ],
      "stateMutability": "view",
      "type": "function"
    },
    {
      "inputs": [
        {
          "internalType": "address",
          "name": "owner",
          "type": "address"
        },
        {
          "internalType": "address",
          "name": "operator",
          "type": "address"
        }
      ],
      "name": "isApprovedForAll",
      "outputs": [
        {
          "internalType": "bool",
          "name": "",
          "type": "bool"
        }
      ],
      "stateMutability": "view",
      "type": "function"
    },
    {
      "inputs": [],
      "name": "makeAnIgboLandingNFT",
      "outputs": [],
      "stateMutability": "nonpayable",
      "type": "function"
    },
    {
      "inputs": [],
      "name": "name",
      "outputs": [
        {
          "internalType": "string",
          "name": "",
          "type": "string"
        }
      ],
      "stateMutability": "view",
      "type": "function"
    },
    {
      "inputs": [
        {
          "internalType": "uint256",
          "name": "tokenId",
          "type": "uint256"
        }
      ],
      "name": "ownerOf",
      "outputs": [
        {
          "internalType": "address",
          "name": "",
          "type": "address"
        }
      ],
      "stateMutability": "view",
      "type": "function"
    },
    {
      "inputs": [
        {
          "internalType": "uint256",
          "name": "tokenId",
          "type": "uint256"
        }
      ],
      "name": "pickRandomColor",
      "outputs": [
        {
          "internalType": "string",
          "name": "",
          "type": "string"
        }
      ],
      "stateMutability": "view",
      "type": "function"
    },
    {
      "inputs": [
        {
          "internalType": "uint256",
          "name": "tokenId",
          "type": "uint256"
        }
      ],
      "name": "pickRandomFirstWord",
      "outputs": [
        {
          "internalType": "string",
          "name": "",
          "type": "string"
        }
      ],
      "stateMutability": "view",
      "type": "function"
    },
    {
      "inputs": [
        {
          "internalType": "uint256",
          "name": "tokenId",
          "type": "uint256"
        }
      ],
      "name": "pickRandomSecondWord",
      "outputs": [
        {
          "internalType": "string",
          "name": "",
          "type": "string"
        }
      ],
      "stateMutability": "view",
      "type": "function"
    },
    {
      "inputs": [
        {
          "internalType": "uint256",
          "name": "tokenId",
          "type": "uint256"
        }
      ],
      "name": "pickRandomThirdWord",
      "outputs": [
        {
          "internalType": "string",
          "name": "",
          "type": "string"
        }
      ],
      "stateMutability": "view",
      "type": "function"
    },
    {
      "inputs": [
        {
          "internalType": "address",
          "name": "from",
          "type": "address"
        },
        {
          "internalType": "address",
          "name": "to",
          "type": "address"
        },
        {
          "internalType": "uint256",
          "name": "tokenId",
          "type": "uint256"
        }
      ],
      "name": "safeTransferFrom",
      "outputs": [],
      "stateMutability": "nonpayable",
      "type": "function"
    },
    {
      "inputs": [
        {
          "internalType": "address",
          "name": "from",
          "type": "address"
        },
        {
          "internalType": "address",
          "name": "to",
          "type": "address"
        },
        {
          "internalType": "uint256",
          "name": "tokenId",
          "type": "uint256"
        },
        {
          "internalType": "bytes",
          "name": "_data",
          "type": "bytes"
        }
      ],
      "name": "safeTransferFrom",
      "outputs": [],
      "stateMutability": "nonpayable",
      "type": "function"
    },
    {
      "inputs": [
        {
          "internalType": "address",
          "name": "operator",
          "type": "address"
        },
        {
          "internalType": "bool",
          "name": "approved",
          "type": "bool"
        }
      ],
      "name": "setApprovalForAll",
      "outputs": [],
      "stateMutability": "nonpayable",
      "type": "function"
    },
    {
      "inputs": [
        {
          "internalType": "bytes4",
          "name": "interfaceId",
          "type": "bytes4"
        }
      ],
      "name": "supportsInterface",
      "outputs": [
        {
          "internalType": "bool",
          "name": "",
          "type": "bool"
        }
      ],
      "stateMutability": "view",
      "type": "function"
    },
    {
      "inputs": [],
      "name": "symbol",
      "outputs": [
        {
          "internalType": "string",
          "name": "",
          "type": "string"
        }
      ],
      "stateMutability": "view",
      "type": "function"
    },
    {
      "inputs": [
        {
          "internalType": "uint256",
          "name": "tokenId",
          "type": "uint256"
        }
      ],
      "name": "tokenURI",
      "outputs": [
        {
          "internalType": "string",
          "name": "",
          "type": "string"
        }
      ],
      "stateMutability": "view",
      "type": "function"
    },
    {
      "inputs": [],
      "name": "totalMinted",
      "outputs": [
        {
          "internalType": "uint256",
          "name": "",
          "type": "uint256"
        }
      ],
      "stateMutability": "view",
      "type": "function"
    },
    {
      "inputs": [],
      "name": "totalSupply",
      "outputs": [
        {
          "internalType": "uint256",
          "name": "",
          "type": "uint256"
        }
      ],
      "stateMutability": "view",
      "type": "function"
    },
    {
      "inputs": [
        {
          "internalType": "address",
          "name": "from",
          "type": "address"
        },
        {
          "internalType": "address",
          "name": "to",
          "type": "address"
        },
        {
          "internalType": "uint256",
          "name": "tokenId",
          "type": "uint256"
        }
      ],
      "name": "transferFrom",
      "outputs": [],
      "stateMutability": "nonpayable",
      "type": "function"
    }
  ],
  "bytecode": "0x60806040526000600855603260095560405180610160016040528061012f81526020016200548461012f9139600a90816200003b919062001289565b506040518061020001604052806040518060400160405280600581526020017f486170707900000000000000000000000000000000000000000000000000000081525081526020016040518060400160405280600981526020017f46616e746173746963000000000000000000000000000000000000000000000081525081526020016040518060400160405280600981526020017f496e63726564696265000000000000000000000000000000000000000000000081525081526020016040518060400160405280600781526020017f417765736f6d650000000000000000000000000000000000000000000000000081525081526020016040518060400160405280600c81526020017f4d696e642d626c6f77696e67000000000000000000000000000000000000000081525081526020016040518060400160405280601681526020017f4162736f6c7574654675636b696e67417765736f6d650000000000000000000081525081526020016040518060400160405280600381526020017f4a6f79000000000000000000000000000000000000000000000000000000000081525081526020016040518060400160405280600481526020017f476c61640000000000000000000000000000000000000000000000000000000081525081526020016040518060400160405280600781526020017f46726565646f6d0000000000000000000000000000000000000000000000000081525081526020016040518060400160405280600581526020017f4c6967687400000000000000000000000000000000000000000000000000000081525081526020016040518060400160405280600381526020017f536164000000000000000000000000000000000000000000000000000000000081525081526020016040518060400160405280600781526020017f466174696775650000000000000000000000000000000000000000000000000081525081526020016040518060400160405280600781526020017f426f7265646f6d0000000000000000000000000000000000000000000000000081525081526020016040518060400160405280600581526020017f416e67727900000000000000000000000000000000000000000000000000000081525081526020016040518060400160405280600381526020017f536879000000000000000000000000000000000000000000000000000000000081525081526020016040518060400160405280600781526020017f436f6e74656e7400000000000000000000000000000000000000000000000000815250815250600b9060106200040892919062000ec2565b506040518061020001604052806040518060400160405280600881526020017f496365637265616d00000000000000000000000000000000000000000000000081525081526020016040518060400160405280600581526020017f50697a7a6100000000000000000000000000000000000000000000000000000081525081526020016040518060400160405280600781526020017f506f70636f726e0000000000000000000000000000000000000000000000000081525081526020016040518060400160405280600681526020017f596f67757274000000000000000000000000000000000000000000000000000081525081526020016040518060400160405280600981526020017f537061676865747469000000000000000000000000000000000000000000000081525081526020016040518060400160405280600581526020017f5461636f7300000000000000000000000000000000000000000000000000000081525081526020016040518060400160405280601481526020017f436869636b2066696c2d412053616e647769636800000000000000000000000081525081526020016040518060400160405280601681526020017f537069637920536f7574682d776573742073616c61640000000000000000000081525081526020016040518060400160405280601881526020017f50616e646120457870726573732066726965642072696365000000000000000081525081526020016040518060400160405280600981526020017f536f79207361756365000000000000000000000000000000000000000000000081525081526020016040518060400160405280600581526020017f416d616c6100000000000000000000000000000000000000000000000000000081525081526020016040518060400160405280600381526020017f456261000000000000000000000000000000000000000000000000000000000081525081526020016040518060400160405280600881526020017f547261696c4d697800000000000000000000000000000000000000000000000081525081526020016040518060400160405280600f81526020017f4372616e6265727279204a75696365000000000000000000000000000000000081525081526020016040518060400160405280600d81526020017f467269656420436869636b656e0000000000000000000000000000000000000081525081526020016040518060400160405280600b81526020017f4a6f6c6c6f662052696365000000000000000000000000000000000000000000815250815250600c906010620007d592919062000ec2565b506040518061020001604052806040518060400160405280600c81526020017f4e6f6e2d6578697374616e74000000000000000000000000000000000000000081525081526020016040518060400160405280600481526020017f4c6966650000000000000000000000000000000000000000000000000000000081525081526020016040518060400160405280600581526020017f446561746800000000000000000000000000000000000000000000000000000081525081526020016040518060400160405280600b81526020017f496d6d6f7274616c69747900000000000000000000000000000000000000000081525081526020016040518060400160405280600981526020017f4b6e6f776c65646765000000000000000000000000000000000000000000000081525081526020016040518060400160405280600d81526020017f556e6465727374616e64696e670000000000000000000000000000000000000081525081526020016040518060400160405280600a81526020017f53696d706c69636974790000000000000000000000000000000000000000000081525081526020016040518060400160405280600681526020017f576973646f6d000000000000000000000000000000000000000000000000000081525081526020016040518060400160405280600381526020017f414749000000000000000000000000000000000000000000000000000000000081525081526020016040518060400160405280601081526020017f5175616e74756d204d616368696e65730000000000000000000000000000000081525081526020016040518060400160405280601081526020017f5175616e74756d2052656163746f72730000000000000000000000000000000081525081526020016040518060400160405280601781526020017f4d756c746964696d656e73696f6e616c20456e6572677900000000000000000081525081526020016040518060400160405280600f81526020017f496e66696e69746520456e65726779000000000000000000000000000000000081525081526020016040518060400160405280600e81526020017f476c6f62616c205761726d696e6700000000000000000000000000000000000081525081526020016040518060400160405280601081526020017f5a6f6d6269652041706f63616c7973650000000000000000000000000000000081525081526020016040518060400160405280600f81526020017f5265642044656174682056697275730000000000000000000000000000000000815250815250600d90601062000ba292919062000ec2565b506040518060c001604052806040518060400160405280600381526020017f726564000000000000000000000000000000000000000000000000000000000081525081526020016040518060400160405280600781526020017f233038433241380000000000000000000000000000000000000000000000000081525081526020016040518060400160405280600581526020017f626c61636b00000000000000000000000000000000000000000000000000000081525081526020016040518060400160405280600681526020017f79656c6c6f77000000000000000000000000000000000000000000000000000081525081526020016040518060400160405280600481526020017f626c75650000000000000000000000000000000000000000000000000000000081525081526020016040518060400160405280600581526020017f677265656e000000000000000000000000000000000000000000000000000000815250815250600e90600662000d2092919062000f22565b5034801562000d2e57600080fd5b506040518060400160405280600e81526020017f4967626f4c616e64696e674e46540000000000000000000000000000000000008152506040518060400160405280600b81526020017f4947424f4c414e44494e47000000000000000000000000000000000000000000815250816000908162000dac919062001289565b50806001908162000dbe919062001289565b50505062000df06040518060600160405280602981526020016200545b6029913962000df660201b6200132c1760201c565b62001423565b62000e968160405160240162000e0d9190620013ff565b6040516020818303038152906040527f41304fac000000000000000000000000000000000000000000000000000000007bffffffffffffffffffffffffffffffffffffffffffffffffffffffff19166020820180517bffffffffffffffffffffffffffffffffffffffffffffffffffffffff838183161783525050505062000e9960201b60201c565b50565b60008151905060006a636f6e736f6c652e6c6f679050602083016000808483855afa5050505050565b82805482825590600052602060002090810192821562000f0f579160200282015b8281111562000f0e57825182908162000efd919062001289565b509160200191906001019062000ee3565b5b50905062000f1e919062000f82565b5090565b82805482825590600052602060002090810192821562000f6f579160200282015b8281111562000f6e57825182908162000f5d919062001289565b509160200191906001019062000f43565b5b50905062000f7e919062000f82565b5090565b5b8082111562000fa6576000818162000f9c919062000faa565b5060010162000f83565b5090565b50805462000fb89062001078565b6000825580601f1062000fcc575062000fed565b601f01602090049060005260206000209081019062000fec919062000ff0565b5b50565b5b808211156200100b57600081600090555060010162000ff1565b5090565b600081519050919050565b7f4e487b7100000000000000000000000000000000000000000000000000000000600052604160045260246000fd5b7f4e487b7100000000000000000000000000000000000000000000000000000000600052602260045260246000fd5b600060028204905060018216806200109157607f821691505b602082108103620010a757620010a662001049565b5b50919050565b60008190508160005260206000209050919050565b60006020601f8301049050919050565b600082821b905092915050565b600060088302620011117fffffffffffffffffffffffffffffffffffffffffffffffffffffffffffffffff82620010d2565b6200111d8683620010d2565b95508019841693508086168417925050509392505050565b6000819050919050565b6000819050919050565b60006200116a620011646200115e8462001135565b6200113f565b62001135565b9050919050565b6000819050919050565b620011868362001149565b6200119e620011958262001171565b848454620010df565b825550505050565b600090565b620011b5620011a6565b620011c28184846200117b565b505050565b5b81811015620011ea57620011de600082620011ab565b600181019050620011c8565b5050565b601f82111562001239576200120381620010ad565b6200120e84620010c2565b810160208510156200121e578190505b620012366200122d85620010c2565b830182620011c7565b50505b505050565b600082821c905092915050565b60006200125e600019846008026200123e565b1980831691505092915050565b60006200127983836200124b565b9150826002028217905092915050565b62001294826200100f565b67ffffffffffffffff811115620012b057620012af6200101a565b5b620012bc825462001078565b620012c9828285620011ee565b600060209050601f831160018114620013015760008415620012ec578287015190505b620012f885826200126b565b86555062001368565b601f1984166200131186620010ad565b60005b828110156200133b5784890151825560018201915060208501945060208101905062001314565b868310156200135b578489015162001357601f8916826200124b565b8355505b6001600288020188555050505b505050505050565b600082825260208201905092915050565b60005b83811015620013a157808201518184015260208101905062001384565b60008484015250505050565b6000601f19601f8301169050919050565b6000620013cb826200100f565b620013d7818562001370565b9350620013e981856020860162001381565b620013f481620013ad565b840191505092915050565b600060208201905081810360008301526200141b8184620013be565b905092915050565b61402880620014336000396000f3fe608060405234801561001057600080fd5b506004361061012c5760003560e01c80636352211e116100ad578063b187301f11610071578063b187301f14610343578063b88d4fde14610373578063c575757a1461038f578063c87b56dd146103bf578063e985e9c5146103ef5761012c565b80636352211e1461028b57806370a08231146102bb57806395d89b41146102eb578063a22cb46514610309578063a2309ff8146103255761012c565b806323b872dd116100f457806323b872dd146101e95780632de38d681461020557806342842e0e14610235578063514dc8c6146102515780635bfa6fc6146102815761012c565b806301ffc9a71461013157806306fdde0314610161578063081812fc1461017f578063095ea7b3146101af57806318160ddd146101cb575b600080fd5b61014b600480360381019061014691906124b7565b61041f565b60405161015891906124ff565b60405180910390f35b610169610501565b60405161017691906125aa565b60405180910390f35b61019960048036038101906101949190612602565b610593565b6040516101a69190612670565b60405180910390f35b6101c960048036038101906101c491906126b7565b610618565b005b6101d361072f565b6040516101e09190612706565b60405180910390f35b61020360048036038101906101fe9190612721565b610735565b005b61021f600480360381019061021a9190612602565b610795565b60405161022c91906125aa565b60405180910390f35b61024f600480360381019061024a9190612721565b61088d565b005b61026b60048036038101906102669190612602565b6108ad565b60405161027891906125aa565b60405180910390f35b6102896109a5565b005b6102a560048036038101906102a09190612602565b610cdf565b6040516102b29190612670565b60405180910390f35b6102d560048036038101906102d09190612774565b610d90565b6040516102e29190612706565b60405180910390f35b6102f3610e47565b60405161030091906125aa565b60405180910390f35b610323600480360381019061031e91906127cd565b610ed9565b005b61032d610eef565b60405161033a9190612706565b60405180910390f35b61035d60048036038101906103589190612602565b610ef5565b60405161036a91906125aa565b60405180910390f35b61038d60048036038101906103889190612942565b610fed565b005b6103a960048036038101906103a49190612602565b61104f565b6040516103b691906125aa565b60405180910390f35b6103d960048036038101906103d49190612602565b611147565b6040516103e691906125aa565b60405180910390f35b610409600480360381019061040491906129c5565b611298565b60405161041691906124ff565b60405180910390f35b60007f80ac58cd000000000000000000000000000000000000000000000000000000007bffffffffffffffffffffffffffffffffffffffffffffffffffffffff1916827bffffffffffffffffffffffffffffffffffffffffffffffffffffffff191614806104ea57507f5b5e139f000000000000000000000000000000000000000000000000000000007bffffffffffffffffffffffffffffffffffffffffffffffffffffffff1916827bffffffffffffffffffffffffffffffffffffffffffffffffffffffff1916145b806104fa57506104f9826113c5565b5b9050919050565b60606000805461051090612a34565b80601f016020809104026020016040519081016040528092919081815260200182805461053c90612a34565b80156105895780601f1061055e57610100808354040283529160200191610589565b820191906000526020600020905b81548152906001019060200180831161056c57829003601f168201915b5050505050905090565b600061059e8261142f565b6105dd576040517f08c379a00000000000000000000000000000000000000000000000000000000081526004016105d490612ad7565b60405180910390fd5b6004600083815260200190815260200160002060009054906101000a900473ffffffffffffffffffffffffffffffffffffffff169050919050565b600061062382610cdf565b90508073ffffffffffffffffffffffffffffffffffffffff168373ffffffffffffffffffffffffffffffffffffffff1603610693576040517f08c379a000000000000000000000000000000000000000000000000000000000815260040161068a90612b69565b60405180910390fd5b8073ffffffffffffffffffffffffffffffffffffffff166106b261149b565b73ffffffffffffffffffffffffffffffffffffffff1614806106e157506106e0816106db61149b565b611298565b5b610720576040517f08c379a000000000000000000000000000000000000000000000000000000000815260040161071790612bfb565b60405180910390fd5b61072a83836114a3565b505050565b60095481565b61074661074061149b565b8261155c565b610785576040517f08c379a000000000000000000000000000000000000000000000000000000000815260040161077c90612c8d565b60405180910390fd5b61079083838361163a565b505050565b606060006107c96107a5846118a0565b6040516020016107b59190612d35565b604051602081830303815290604052611a00565b9050600b80549050816107dc9190612d86565b9050600b81815481106107f2576107f1612db7565b5b90600052602060002001805461080790612a34565b80601f016020809104026020016040519081016040528092919081815260200182805461083390612a34565b80156108805780601f1061085557610100808354040283529160200191610880565b820191906000526020600020905b81548152906001019060200180831161086357829003601f168201915b5050505050915050919050565b6108a883838360405180602001604052806000815250610fed565b505050565b606060006108e16108bd846118a0565b6040516020016108cd9190612e32565b604051602081830303815290604052611a00565b9050600e80549050816108f49190612d86565b9050600e818154811061090a57610909612db7565b5b90600052602060002001805461091f90612a34565b80601f016020809104026020016040519081016040528092919081815260200182805461094b90612a34565b80156109985780601f1061096d57610100808354040283529160200191610998565b820191906000526020600020905b81548152906001019060200180831161097b57829003601f168201915b5050505050915050919050565b600954600854106109eb576040517f08c379a00000000000000000000000000000000000000000000000000000000081526004016109e290612ec6565b60405180910390fd5b6001600860008282546109fe9190612f15565b925050819055506000610a116007611a33565b90506000610a1e82610795565b90506000610a2b83610ef5565b90506000610a388461104f565b90506000838383604051602001610a5193929190612f49565b60405160208183030381529060405290506000610a6d866108ad565b90506000600a8284604051602001610a879392919061305e565b60405160208183030381529060405290506000610acc84610aa784611a41565b604051602001610ab89291906131f0565b604051602081830303815290604052611a41565b9050600081604051602001610ae19190613281565b6040516020818303038152906040529050610b306040518060400160405280601581526020017f0a2d2d2d2d2d2d2d2d2d2d2d2d2d2d2d2d2d2d2d2d000000000000000000000081525061132c565b610b6e6040518060400160405280600b81526020017f46696e616c20535647200a00000000000000000000000000000000000000000081525061132c565b610b778361132c565b610bb56040518060400160405280601081526020017f496d616765204d65746164617461200a0000000000000000000000000000000081525061132c565b610bbe8161132c565b610c1c6040518060400160405280600d81526020017f4e46542050726576696577200a0000000000000000000000000000000000000081525082604051602001610c089190613315565b604051602081830303815290604052611bd8565b610c5a6040518060400160405280601581526020017f2d2d2d2d2d2d2d2d2d2d2d2d2d2d2d2d2d2d2d2d0a000000000000000000000081525061132c565b610c64338a611c74565b610c6e8982611c92565b610c786007611cff565b610c9b604051806060016040528060258152602001613f8e602591398a33611d15565b7febb98688741ffa4c7589bf325de30cf7becb63de567842e1ccdb6cb949fdc82c338a604051610ccc929190613337565b60405180910390a1505050505050505050565b6000806002600084815260200190815260200160002060009054906101000a900473ffffffffffffffffffffffffffffffffffffffff169050600073ffffffffffffffffffffffffffffffffffffffff168173ffffffffffffffffffffffffffffffffffffffff1603610d87576040517f08c379a0000000000000000000000000000000000000000000000000000000008152600401610d7e906133d2565b60405180910390fd5b80915050919050565b60008073ffffffffffffffffffffffffffffffffffffffff168273ffffffffffffffffffffffffffffffffffffffff1603610e00576040517f08c379a0000000000000000000000000000000000000000000000000000000008152600401610df790613464565b60405180910390fd5b600360008373ffffffffffffffffffffffffffffffffffffffff1673ffffffffffffffffffffffffffffffffffffffff168152602001908152602001600020549050919050565b606060018054610e5690612a34565b80601f0160208091040260200160405190810160405280929190818152602001828054610e8290612a34565b8015610ecf5780601f10610ea457610100808354040283529160200191610ecf565b820191906000526020600020905b815481529060010190602001808311610eb257829003601f168201915b5050505050905090565b610eeb610ee461149b565b8383611db4565b5050565b60085481565b60606000610f29610f05846118a0565b604051602001610f1591906134d0565b604051602081830303815290604052611a00565b9050600c8054905081610f3c9190612d86565b9050600c8181548110610f5257610f51612db7565b5b906000526020600020018054610f6790612a34565b80601f0160208091040260200160405190810160405280929190818152602001828054610f9390612a34565b8015610fe05780601f10610fb557610100808354040283529160200191610fe0565b820191906000526020600020905b815481529060010190602001808311610fc357829003601f168201915b5050505050915050919050565b610ffe610ff861149b565b8361155c565b61103d576040517f08c379a000000000000000000000000000000000000000000000000000000000815260040161103490612c8d565b60405180910390fd5b61104984848484611f20565b50505050565b6060600061108361105f846118a0565b60405160200161106f919061353e565b604051602081830303815290604052611a00565b9050600d80549050816110969190612d86565b9050600d81815481106110ac576110ab612db7565b5b9060005260206000200180546110c190612a34565b80601f01602080910402602001604051908101604052809291908181526020018280546110ed90612a34565b801561113a5780601f1061110f5761010080835404028352916020019161113a565b820191906000526020600020905b81548152906001019060200180831161111d57829003601f168201915b5050505050915050919050565b60606111528261142f565b611191576040517f08c379a0000000000000000000000000000000000000000000000000000000008152600401611188906135d2565b60405180910390fd5b60006006600084815260200190815260200160002080546111b190612a34565b80601f01602080910402602001604051908101604052809291908181526020018280546111dd90612a34565b801561122a5780601f106111ff5761010080835404028352916020019161122a565b820191906000526020600020905b81548152906001019060200180831161120d57829003601f168201915b50505050509050600061123b611f7c565b90506000815103611250578192505050611293565b60008251111561128557808260405160200161126d9291906135f2565b60405160208183030381529060405292505050611293565b61128e84611f93565b925050505b919050565b6000600560008473ffffffffffffffffffffffffffffffffffffffff1673ffffffffffffffffffffffffffffffffffffffff16815260200190815260200160002060008373ffffffffffffffffffffffffffffffffffffffff1673ffffffffffffffffffffffffffffffffffffffff16815260200190815260200160002060009054906101000a900460ff16905092915050565b6113c28160405160240161134091906125aa565b6040516020818303038152906040527f41304fac000000000000000000000000000000000000000000000000000000007bffffffffffffffffffffffffffffffffffffffffffffffffffffffff19166020820180517bffffffffffffffffffffffffffffffffffffffffffffffffffffffff838183161783525050505061203a565b50565b60007f01ffc9a7000000000000000000000000000000000000000000000000000000007bffffffffffffffffffffffffffffffffffffffffffffffffffffffff1916827bffffffffffffffffffffffffffffffffffffffffffffffffffffffff1916149050919050565b60008073ffffffffffffffffffffffffffffffffffffffff166002600084815260200190815260200160002060009054906101000a900473ffffffffffffffffffffffffffffffffffffffff1673ffffffffffffffffffffffffffffffffffffffff1614159050919050565b600033905090565b816004600083815260200190815260200160002060006101000a81548173ffffffffffffffffffffffffffffffffffffffff021916908373ffffffffffffffffffffffffffffffffffffffff160217905550808273ffffffffffffffffffffffffffffffffffffffff1661151683610cdf565b73ffffffffffffffffffffffffffffffffffffffff167f8c5be1e5ebec7d5bd14f71427d1e84f3dd0314c0f7b2291e5b200ac8c7c3b92560405160405180910390a45050565b60006115678261142f565b6115a6576040517f08c379a000000000000000000000000000000000000000000000000000000000815260040161159d90613688565b60405180910390fd5b60006115b183610cdf565b90508073ffffffffffffffffffffffffffffffffffffffff168473ffffffffffffffffffffffffffffffffffffffff1614806115f357506115f28185611298565b5b8061163157508373ffffffffffffffffffffffffffffffffffffffff1661161984610593565b73ffffffffffffffffffffffffffffffffffffffff16145b91505092915050565b8273ffffffffffffffffffffffffffffffffffffffff1661165a82610cdf565b73ffffffffffffffffffffffffffffffffffffffff16146116b0576040517f08c379a00000000000000000000000000000000000000000000000000000000081526004016116a79061371a565b60405180910390fd5b600073ffffffffffffffffffffffffffffffffffffffff168273ffffffffffffffffffffffffffffffffffffffff160361171f576040517f08c379a0000000000000000000000000000000000000000000000000000000008152600401611716906137ac565b60405180910390fd5b61172a838383612063565b6117356000826114a3565b6001600360008573ffffffffffffffffffffffffffffffffffffffff1673ffffffffffffffffffffffffffffffffffffffff168152602001908152602001600020600082825461178591906137cc565b925050819055506001600360008473ffffffffffffffffffffffffffffffffffffffff1673ffffffffffffffffffffffffffffffffffffffff16815260200190815260200160002060008282546117dc9190612f15565b92505081905550816002600083815260200190815260200160002060006101000a81548173ffffffffffffffffffffffffffffffffffffffff021916908373ffffffffffffffffffffffffffffffffffffffff160217905550808273ffffffffffffffffffffffffffffffffffffffff168473ffffffffffffffffffffffffffffffffffffffff167fddf252ad1be2c89b69c2b068fc378daa952ba7f163c4a11628f55a4df523b3ef60405160405180910390a461189b838383612068565b505050565b6060600082036118e7576040518060400160405280600181526020017f300000000000000000000000000000000000000000000000000000000000000081525090506119fb565b600082905060005b6000821461191957808061190290613800565b915050600a826119129190613848565b91506118ef565b60008167ffffffffffffffff81111561193557611934612817565b5b6040519080825280601f01601f1916602001820160405280156119675781602001600182028036833780820191505090505b5090505b600085146119f45760018261198091906137cc565b9150600a8561198f9190612d86565b603061199b9190612f15565b60f81b8183815181106119b1576119b0612db7565b5b60200101907effffffffffffffffffffffffffffffffffffffffffffffffffffffffffffff1916908160001a905350600a856119ed9190613848565b945061196b565b8093505050505b919050565b600081604051602001611a139190613879565b6040516020818303038152906040528051906020012060001c9050919050565b600081600001549050919050565b606060008251905060008103611a695760405180602001604052806000815250915050611bd3565b60006003600283611a7a9190612f15565b611a849190613848565b6004611a909190613890565b90506000602082611aa19190612f15565b67ffffffffffffffff811115611aba57611ab9612817565b5b6040519080825280601f01601f191660200182016040528015611aec5781602001600182028036833780820191505090505b5090506000604051806060016040528060408152602001613fb3604091399050600181016020830160005b86811015611b905760038101905062ffffff818a015116603f8160121c168401518060081b905060ff603f83600c1c1686015116810190508060081b905060ff603f8360061c1686015116810190508060081b905060ff603f831686015116810190508060e01b90508084526004840193505050611b17565b506003860660018114611baa5760028114611bba57611bc5565b613d3d60f01b6002830352611bc5565b603d60f81b60018303525b508484525050819450505050505b919050565b611c708282604051602401611bee9291906138d2565b6040516020818303038152906040527f4b5c4277000000000000000000000000000000000000000000000000000000007bffffffffffffffffffffffffffffffffffffffffffffffffffffffff19166020820180517bffffffffffffffffffffffffffffffffffffffffffffffffffffffff838183161783525050505061203a565b5050565b611c8e82826040518060200160405280600081525061206d565b5050565b611c9b8261142f565b611cda576040517f08c379a0000000000000000000000000000000000000000000000000000000008152600401611cd19061397b565b60405180910390fd5b80600660008481526020019081526020016000209081611cfa9190613b32565b505050565b6001816000016000828254019250508190555050565b611daf838383604051602401611d2d93929190613c04565b6040516020818303038152906040527f1c7ec448000000000000000000000000000000000000000000000000000000007bffffffffffffffffffffffffffffffffffffffffffffffffffffffff19166020820180517bffffffffffffffffffffffffffffffffffffffffffffffffffffffff838183161783525050505061203a565b505050565b8173ffffffffffffffffffffffffffffffffffffffff168373ffffffffffffffffffffffffffffffffffffffff1603611e22576040517f08c379a0000000000000000000000000000000000000000000000000000000008152600401611e1990613c8e565b60405180910390fd5b80600560008573ffffffffffffffffffffffffffffffffffffffff1673ffffffffffffffffffffffffffffffffffffffff16815260200190815260200160002060008473ffffffffffffffffffffffffffffffffffffffff1673ffffffffffffffffffffffffffffffffffffffff16815260200190815260200160002060006101000a81548160ff0219169083151502179055508173ffffffffffffffffffffffffffffffffffffffff168373ffffffffffffffffffffffffffffffffffffffff167f17307eab39ab6107e8899845ad3d59bd9653f200f220920489ca2b5937696c3183604051611f1391906124ff565b60405180910390a3505050565b611f2b84848461163a565b611f37848484846120c8565b611f76576040517f08c379a0000000000000000000000000000000000000000000000000000000008152600401611f6d90613d20565b60405180910390fd5b50505050565b606060405180602001604052806000815250905090565b6060611f9e8261142f565b611fdd576040517f08c379a0000000000000000000000000000000000000000000000000000000008152600401611fd490613db2565b60405180910390fd5b6000611fe7611f7c565b905060008151116120075760405180602001604052806000815250612032565b80612011846118a0565b6040516020016120229291906135f2565b6040516020818303038152906040525b915050919050565b60008151905060006a636f6e736f6c652e6c6f679050602083016000808483855afa5050505050565b505050565b505050565b612077838361224f565b61208460008484846120c8565b6120c3576040517f08c379a00000000000000000000000000000000000000000000000000000000081526004016120ba90613d20565b60405180910390fd5b505050565b60006120e98473ffffffffffffffffffffffffffffffffffffffff16612428565b15612242578373ffffffffffffffffffffffffffffffffffffffff1663150b7a0261211261149b565b8786866040518563ffffffff1660e01b81526004016121349493929190613e27565b6020604051808303816000875af192505050801561217057506040513d601f19601f8201168201806040525081019061216d9190613e88565b60015b6121f2573d80600081146121a0576040519150601f19603f3d011682016040523d82523d6000602084013e6121a5565b606091505b5060008151036121ea576040517f08c379a00000000000000000000000000000000000000000000000000000000081526004016121e190613d20565b60405180910390fd5b805181602001fd5b63150b7a0260e01b7bffffffffffffffffffffffffffffffffffffffffffffffffffffffff1916817bffffffffffffffffffffffffffffffffffffffffffffffffffffffff191614915050612247565b600190505b949350505050565b600073ffffffffffffffffffffffffffffffffffffffff168273ffffffffffffffffffffffffffffffffffffffff16036122be576040517f08c379a00000000000000000000000000000000000000000000000000000000081526004016122b590613f01565b60405180910390fd5b6122c78161142f565b15612307576040517f08c379a00000000000000000000000000000000000000000000000000000000081526004016122fe90613f6d565b60405180910390fd5b61231360008383612063565b6001600360008473ffffffffffffffffffffffffffffffffffffffff1673ffffffffffffffffffffffffffffffffffffffff16815260200190815260200160002060008282546123639190612f15565b92505081905550816002600083815260200190815260200160002060006101000a81548173ffffffffffffffffffffffffffffffffffffffff021916908373ffffffffffffffffffffffffffffffffffffffff160217905550808273ffffffffffffffffffffffffffffffffffffffff16600073ffffffffffffffffffffffffffffffffffffffff167fddf252ad1be2c89b69c2b068fc378daa952ba7f163c4a11628f55a4df523b3ef60405160405180910390a461242460008383612068565b5050565b6000808273ffffffffffffffffffffffffffffffffffffffff163b119050919050565b6000604051905090565b600080fd5b600080fd5b60007fffffffff0000000000000000000000000000000000000000000000000000000082169050919050565b6124948161245f565b811461249f57600080fd5b50565b6000813590506124b18161248b565b92915050565b6000602082840312156124cd576124cc612455565b5b60006124db848285016124a2565b91505092915050565b60008115159050919050565b6124f9816124e4565b82525050565b600060208201905061251460008301846124f0565b92915050565b600081519050919050565b600082825260208201905092915050565b60005b83811015612554578082015181840152602081019050612539565b60008484015250505050565b6000601f19601f8301169050919050565b600061257c8261251a565b6125868185612525565b9350612596818560208601612536565b61259f81612560565b840191505092915050565b600060208201905081810360008301526125c48184612571565b905092915050565b6000819050919050565b6125df816125cc565b81146125ea57600080fd5b50565b6000813590506125fc816125d6565b92915050565b60006020828403121561261857612617612455565b5b6000612626848285016125ed565b91505092915050565b600073ffffffffffffffffffffffffffffffffffffffff82169050919050565b600061265a8261262f565b9050919050565b61266a8161264f565b82525050565b60006020820190506126856000830184612661565b92915050565b6126948161264f565b811461269f57600080fd5b50565b6000813590506126b18161268b565b92915050565b600080604083850312156126ce576126cd612455565b5b60006126dc858286016126a2565b92505060206126ed858286016125ed565b9150509250929050565b612700816125cc565b82525050565b600060208201905061271b60008301846126f7565b92915050565b60008060006060848603121561273a57612739612455565b5b6000612748868287016126a2565b9350506020612759868287016126a2565b925050604061276a868287016125ed565b9150509250925092565b60006020828403121561278a57612789612455565b5b6000612798848285016126a2565b91505092915050565b6127aa816124e4565b81146127b557600080fd5b50565b6000813590506127c7816127a1565b92915050565b600080604083850312156127e4576127e3612455565b5b60006127f2858286016126a2565b9250506020612803858286016127b8565b9150509250929050565b600080fd5b600080fd5b7f4e487b7100000000000000000000000000000000000000000000000000000000600052604160045260246000fd5b61284f82612560565b810181811067ffffffffffffffff8211171561286e5761286d612817565b5b80604052505050565b600061288161244b565b905061288d8282612846565b919050565b600067ffffffffffffffff8211156128ad576128ac612817565b5b6128b682612560565b9050602081019050919050565b82818337600083830152505050565b60006128e56128e084612892565b612877565b90508281526020810184848401111561290157612900612812565b5b61290c8482856128c3565b509392505050565b600082601f8301126129295761292861280d565b5b81356129398482602086016128d2565b91505092915050565b6000806000806080858703121561295c5761295b612455565b5b600061296a878288016126a2565b945050602061297b878288016126a2565b935050604061298c878288016125ed565b925050606085013567ffffffffffffffff8111156129ad576129ac61245a565b5b6129b987828801612914565b91505092959194509250565b600080604083850312156129dc576129db612455565b5b60006129ea858286016126a2565b92505060206129fb858286016126a2565b9150509250929050565b7f4e487b7100000000000000000000000000000000000000000000000000000000600052602260045260246000fd5b60006002820490506001821680612a4c57607f821691505b602082108103612a5f57612a5e612a05565b5b50919050565b7f4552433732313a20617070726f76656420717565727920666f72206e6f6e657860008201527f697374656e7420746f6b656e0000000000000000000000000000000000000000602082015250565b6000612ac1602c83612525565b9150612acc82612a65565b604082019050919050565b60006020820190508181036000830152612af081612ab4565b9050919050565b7f4552433732313a20617070726f76616c20746f2063757272656e74206f776e6560008201527f7200000000000000000000000000000000000000000000000000000000000000602082015250565b6000612b53602183612525565b9150612b5e82612af7565b604082019050919050565b60006020820190508181036000830152612b8281612b46565b9050919050565b7f4552433732313a20617070726f76652063616c6c6572206973206e6f74206f7760008201527f6e6572206e6f7220617070726f76656420666f7220616c6c0000000000000000602082015250565b6000612be5603883612525565b9150612bf082612b89565b604082019050919050565b60006020820190508181036000830152612c1481612bd8565b9050919050565b7f4552433732313a207472616e736665722063616c6c6572206973206e6f74206f60008201527f776e6572206e6f7220617070726f766564000000000000000000000000000000602082015250565b6000612c77603183612525565b9150612c8282612c1b565b604082019050919050565b60006020820190508181036000830152612ca681612c6a565b9050919050565b600081905092915050565b7f46495253545f574f524400000000000000000000000000000000000000000000600082015250565b6000612cee600a83612cad565b9150612cf982612cb8565b600a82019050919050565b6000612d0f8261251a565b612d198185612cad565b9350612d29818560208601612536565b80840191505092915050565b6000612d4082612ce1565b9150612d4c8284612d04565b915081905092915050565b7f4e487b7100000000000000000000000000000000000000000000000000000000600052601260045260246000fd5b6000612d91826125cc565b9150612d9c836125cc565b925082612dac57612dab612d57565b5b828206905092915050565b7f4e487b7100000000000000000000000000000000000000000000000000000000600052603260045260246000fd5b7f434f4c4f52000000000000000000000000000000000000000000000000000000600082015250565b6000612e1c600583612cad565b9150612e2782612de6565b600582019050919050565b6000612e3d82612e0f565b9150612e498284612d04565b915081905092915050565b7f54686520746f74616c206e756d626572206f66204e465473206861766520626560008201527f656e206d696e7465640000000000000000000000000000000000000000000000602082015250565b6000612eb0602983612525565b9150612ebb82612e54565b604082019050919050565b60006020820190508181036000830152612edf81612ea3565b9050919050565b7f4e487b7100000000000000000000000000000000000000000000000000000000600052601160045260246000fd5b6000612f20826125cc565b9150612f2b836125cc565b9250828201905080821115612f4357612f42612ee6565b5b92915050565b6000612f558286612d04565b9150612f618285612d04565b9150612f6d8284612d04565b9150819050949350505050565b60008190508160005260206000209050919050565b60008154612f9c81612a34565b612fa68186612cad565b94506001821660008114612fc15760018114612fd657613009565b60ff1983168652811515820286019350613009565b612fdf85612f7a565b60005b8381101561300157815481890152600182019150602081019050612fe2565b838801955050505b50505092915050565b7f3c2f746578743e3c2f7376673e00000000000000000000000000000000000000600082015250565b6000613048600d83612cad565b915061305382613012565b600d82019050919050565b600061306a8286612f8f565b91506130768285612d04565b91506130828284612d04565b915061308d8261303b565b9150819050949350505050565b7f7b226e616d65223a202200000000000000000000000000000000000000000000600082015250565b60006130d0600a83612cad565b91506130db8261309a565b600a82019050919050565b7f222c20226465736372697074696f6e223a20224120686967686c79206163636c60008201527f61696d656420636f6c6c656374696f6e206f6620737175617265732e222c202260208201527f696d616765223a2022646174613a696d6167652f7376672b786d6c3b6261736560408201527f36342c0000000000000000000000000000000000000000000000000000000000606082015250565b600061318e606383612cad565b9150613199826130e6565b606382019050919050565b7f227d000000000000000000000000000000000000000000000000000000000000600082015250565b60006131da600283612cad565b91506131e5826131a4565b600282019050919050565b60006131fb826130c3565b91506132078285612d04565b915061321282613181565b915061321e8284612d04565b9150613229826131cd565b91508190509392505050565b7f646174613a6170706c69636174696f6e2f6a736f6e3b6261736536342c000000600082015250565b600061326b601d83612cad565b915061327682613235565b601d82019050919050565b600061328c8261325e565b91506132988284612d04565b915081905092915050565b7f68747470733a2f2f6e6674707265766965772e30786465762e636f6465732f3f60008201527f636f64653d000000000000000000000000000000000000000000000000000000602082015250565b60006132ff602583612cad565b915061330a826132a3565b602582019050919050565b6000613320826132f2565b915061332c8284612d04565b915081905092915050565b600060408201905061334c6000830185612661565b61335960208301846126f7565b9392505050565b7f4552433732313a206f776e657220717565727920666f72206e6f6e657869737460008201527f656e7420746f6b656e0000000000000000000000000000000000000000000000602082015250565b60006133bc602983612525565b91506133c782613360565b604082019050919050565b600060208201905081810360008301526133eb816133af565b9050919050565b7f4552433732313a2062616c616e636520717565727920666f7220746865207a6560008201527f726f206164647265737300000000000000000000000000000000000000000000602082015250565b600061344e602a83612525565b9150613459826133f2565b604082019050919050565b6000602082019050818103600083015261347d81613441565b9050919050565b7f5345434f4e445f574f5244000000000000000000000000000000000000000000600082015250565b60006134ba600b83612cad565b91506134c582613484565b600b82019050919050565b60006134db826134ad565b91506134e78284612d04565b915081905092915050565b7f54484952445f574f524400000000000000000000000000000000000000000000600082015250565b6000613528600a83612cad565b9150613533826134f2565b600a82019050919050565b60006135498261351b565b91506135558284612d04565b915081905092915050565b7f45524337323155524953746f726167653a2055524920717565727920666f722060008201527f6e6f6e6578697374656e7420746f6b656e000000000000000000000000000000602082015250565b60006135bc603183612525565b91506135c782613560565b604082019050919050565b600060208201905081810360008301526135eb816135af565b9050919050565b60006135fe8285612d04565b915061360a8284612d04565b91508190509392505050565b7f4552433732313a206f70657261746f7220717565727920666f72206e6f6e657860008201527f697374656e7420746f6b656e0000000000000000000000000000000000000000602082015250565b6000613672602c83612525565b915061367d82613616565b604082019050919050565b600060208201905081810360008301526136a181613665565b9050919050565b7f4552433732313a207472616e736665722066726f6d20696e636f72726563742060008201527f6f776e6572000000000000000000000000000000000000000000000000000000602082015250565b6000613704602583612525565b915061370f826136a8565b604082019050919050565b60006020820190508181036000830152613733816136f7565b9050919050565b7f4552433732313a207472616e7366657220746f20746865207a65726f2061646460008201527f7265737300000000000000000000000000000000000000000000000000000000602082015250565b6000613796602483612525565b91506137a18261373a565b604082019050919050565b600060208201905081810360008301526137c581613789565b9050919050565b60006137d7826125cc565b91506137e2836125cc565b92508282039050818111156137fa576137f9612ee6565b5b92915050565b600061380b826125cc565b91507fffffffffffffffffffffffffffffffffffffffffffffffffffffffffffffffff820361383d5761383c612ee6565b5b600182019050919050565b6000613853826125cc565b915061385e836125cc565b92508261386e5761386d612d57565b5b828204905092915050565b60006138858284612d04565b915081905092915050565b600061389b826125cc565b91506138a6836125cc565b92508282026138b4816125cc565b915082820484148315176138cb576138ca612ee6565b5b5092915050565b600060408201905081810360008301526138ec8185612571565b905081810360208301526139008184612571565b90509392505050565b7f45524337323155524953746f726167653a2055524920736574206f66206e6f6e60008201527f6578697374656e7420746f6b656e000000000000000000000000000000000000602082015250565b6000613965602e83612525565b915061397082613909565b604082019050919050565b6000602082019050818103600083015261399481613958565b9050919050565b60006020601f8301049050919050565b600082821b905092915050565b6000600883026139e87fffffffffffffffffffffffffffffffffffffffffffffffffffffffffffffffff826139ab565b6139f286836139ab565b95508019841693508086168417925050509392505050565b6000819050919050565b6000613a2f613a2a613a25846125cc565b613a0a565b6125cc565b9050919050565b6000819050919050565b613a4983613a14565b613a5d613a5582613a36565b8484546139b8565b825550505050565b600090565b613a72613a65565b613a7d818484613a40565b505050565b5b81811015613aa157613a96600082613a6a565b600181019050613a83565b5050565b601f821115613ae657613ab781612f7a565b613ac08461399b565b81016020851015613acf578190505b613ae3613adb8561399b565b830182613a82565b50505b505050565b600082821c905092915050565b6000613b0960001984600802613aeb565b1980831691505092915050565b6000613b228383613af8565b9150826002028217905092915050565b613b3b8261251a565b67ffffffffffffffff811115613b5457613b53612817565b5b613b5e8254612a34565b613b69828285613aa5565b600060209050601f831160018114613b9c5760008415613b8a578287015190505b613b948582613b16565b865550613bfc565b601f198416613baa86612f7a565b60005b82811015613bd257848901518255600182019150602085019450602081019050613bad565b86831015613bef5784890151613beb601f891682613af8565b8355505b6001600288020188555050505b505050505050565b60006060820190508181036000830152613c1e8186612571565b9050613c2d60208301856126f7565b613c3a6040830184612661565b949350505050565b7f4552433732313a20617070726f766520746f2063616c6c657200000000000000600082015250565b6000613c78601983612525565b9150613c8382613c42565b602082019050919050565b60006020820190508181036000830152613ca781613c6b565b9050919050565b7f4552433732313a207472616e7366657220746f206e6f6e20455243373231526560008201527f63656976657220696d706c656d656e7465720000000000000000000000000000602082015250565b6000613d0a603283612525565b9150613d1582613cae565b604082019050919050565b60006020820190508181036000830152613d3981613cfd565b9050919050565b7f4552433732314d657461646174613a2055524920717565727920666f72206e6f60008201527f6e6578697374656e7420746f6b656e0000000000000000000000000000000000602082015250565b6000613d9c602f83612525565b9150613da782613d40565b604082019050919050565b60006020820190508181036000830152613dcb81613d8f565b9050919050565b600081519050919050565b600082825260208201905092915050565b6000613df982613dd2565b613e038185613ddd565b9350613e13818560208601612536565b613e1c81612560565b840191505092915050565b6000608082019050613e3c6000830187612661565b613e496020830186612661565b613e5660408301856126f7565b8181036060830152613e688184613dee565b905095945050505050565b600081519050613e828161248b565b92915050565b600060208284031215613e9e57613e9d612455565b5b6000613eac84828501613e73565b91505092915050565b7f4552433732313a206d696e7420746f20746865207a65726f2061646472657373600082015250565b6000613eeb602083612525565b9150613ef682613eb5565b602082019050919050565b60006020820190508181036000830152613f1a81613ede565b9050919050565b7f4552433732313a20746f6b656e20616c7265616479206d696e74656400000000600082015250565b6000613f57601c83612525565b9150613f6282613f21565b602082019050919050565b60006020820190508181036000830152613f8681613f4a565b905091905056fe416e204e465420772f20494420257320686173206265656e206d696e74656420746f2025734142434445464748494a4b4c4d4e4f505152535455565758595a6162636465666768696a6b6c6d6e6f707172737475767778797a303132333435363738392b2fa26469706673582212206010013df1f0545805b3eeeb134e2ca1be8855e8a68300cb8669885eae1d203764736f6c6343000811003354686973204e465420697320696e73706972656420627920746865204967626f2d4c616e64696e672e3c73766720786d6c6e733d27687474703a2f2f7777772e77332e6f72672f323030302f73766727207072657365727665417370656374526174696f3d27784d696e594d696e206d656574272076696577426f783d273020302033353020333530273e3c7374796c653e2e62617365207b2066696c6c3a2077686974653b20666f6e742d66616d696c793a2073657269663b20666f6e742d73697a653a20323470783b207d3c2f7374796c653e3c726563742077696474683d273130302527206865696768743d2731303025272066696c6c3d27626c61636b27202f3e3c7465787420783d273530252720793d273530252720636c6173733d27626173652720646f6d696e616e742d626173656c696e653d276d6964646c652720746578742d616e63686f723d276d6964646c65273e",
  "linkReferences": {},
  "deployedLinkReferences": {}
}